{
  "_format": "hh-sol-artifact-1",
  "contractName": "PriceOracle",
  "sourceName": "contracts/oracle/PriceOracle.sol",
  "abi": [
    {
      "inputs": [
        {
          "internalType": "address",
          "name": "_usdt",
          "type": "address"
        },
        {
          "internalType": "address",
          "name": "_usdc",
          "type": "address"
        },
        {
          "internalType": "address",
          "name": "_factory",
          "type": "address"
        }
      ],
      "stateMutability": "nonpayable",
      "type": "constructor"
    },
    {
      "anonymous": false,
      "inputs": [
        {
          "indexed": true,
          "internalType": "address",
          "name": "previousOwner",
          "type": "address"
        },
        {
          "indexed": true,
          "internalType": "address",
          "name": "newOwner",
          "type": "address"
        }
      ],
      "name": "OwnershipTransferred",
      "type": "event"
    },
    {
      "anonymous": false,
      "inputs": [
        {
          "indexed": false,
          "internalType": "address",
          "name": "token",
          "type": "address"
        },
        {
          "indexed": false,
          "internalType": "uint256",
          "name": "tokenPrice",
          "type": "uint256"
        }
      ],
      "name": "PriceUpdate",
      "type": "event"
    },
    {
      "inputs": [],
      "name": "PERIOD",
      "outputs": [
        {
          "internalType": "uint256",
          "name": "",
          "type": "uint256"
        }
      ],
      "stateMutability": "view",
      "type": "function"
    },
    {
      "inputs": [
        {
          "internalType": "address[]",
          "name": "_tokenAddress",
          "type": "address[]"
        },
        {
          "internalType": "address[]",
          "name": "_dataFeed",
          "type": "address[]"
        }
      ],
      "name": "_addDataFeedAddress",
      "outputs": [],
      "stateMutability": "nonpayable",
      "type": "function"
    },
    {
      "inputs": [
        {
          "internalType": "address[]",
          "name": "_tokenAddress",
          "type": "address[]"
        },
        {
          "internalType": "address[]",
          "name": "_dataFeed",
          "type": "address[]"
        }
      ],
      "name": "addDataFeedAddress",
      "outputs": [],
      "stateMutability": "nonpayable",
      "type": "function"
    },
    {
      "inputs": [],
      "name": "factory",
      "outputs": [
        {
          "internalType": "contract IUniswapV2Factory",
          "name": "",
          "type": "address"
        }
      ],
      "stateMutability": "view",
      "type": "function"
    },
    {
      "inputs": [
        {
          "internalType": "address",
          "name": "tokenIn",
          "type": "address"
        }
      ],
      "name": "getAssetPriceUSD",
      "outputs": [
        {
          "internalType": "uint8",
          "name": "",
          "type": "uint8"
        },
        {
          "internalType": "uint256",
          "name": "",
          "type": "uint256"
        }
      ],
      "stateMutability": "view",
      "type": "function"
    },
    {
      "inputs": [
        {
          "internalType": "address[]",
          "name": "_tokens",
          "type": "address[]"
        }
      ],
      "name": "massUpdate",
      "outputs": [],
      "stateMutability": "nonpayable",
      "type": "function"
    },
    {
      "inputs": [],
      "name": "owner",
      "outputs": [
        {
          "internalType": "address",
          "name": "",
          "type": "address"
        }
      ],
      "stateMutability": "view",
      "type": "function"
    },
    {
      "inputs": [],
      "name": "renounceOwnership",
      "outputs": [],
      "stateMutability": "nonpayable",
      "type": "function"
    },
    {
      "inputs": [
        {
          "internalType": "address",
          "name": "",
          "type": "address"
        }
      ],
      "name": "tokenInfoFallbacks",
      "outputs": [
        {
          "internalType": "uint256",
          "name": "price0CumulativeLast",
          "type": "uint256"
        },
        {
          "internalType": "uint256",
          "name": "price1CumulativeLast",
          "type": "uint256"
        },
        {
          "internalType": "uint32",
          "name": "blockTimestampLast",
          "type": "uint32"
        },
        {
          "components": [
            {
              "internalType": "uint224",
              "name": "_x",
              "type": "uint224"
            }
          ],
          "internalType": "struct FixedPoint.uq112x112",
          "name": "price0Average",
          "type": "tuple"
        },
        {
          "components": [
            {
              "internalType": "uint224",
              "name": "_x",
              "type": "uint224"
            }
          ],
          "internalType": "struct FixedPoint.uq112x112",
          "name": "price1Average",
          "type": "tuple"
        },
        {
          "internalType": "bool",
          "name": "isInit",
          "type": "bool"
        }
      ],
      "stateMutability": "view",
      "type": "function"
    },
    {
      "inputs": [
        {
          "internalType": "address",
          "name": "",
          "type": "address"
        }
      ],
      "name": "tokenPriceFeed",
      "outputs": [
        {
          "internalType": "address",
          "name": "",
          "type": "address"
        }
      ],
      "stateMutability": "view",
      "type": "function"
    },
    {
      "inputs": [
        {
          "internalType": "address",
          "name": "newOwner",
          "type": "address"
        }
      ],
      "name": "transferOwnership",
      "outputs": [],
      "stateMutability": "nonpayable",
      "type": "function"
    },
    {
      "inputs": [
        {
          "internalType": "address",
          "name": "_token",
          "type": "address"
        }
      ],
      "name": "update",
      "outputs": [],
      "stateMutability": "nonpayable",
      "type": "function"
    },
    {
      "inputs": [],
      "name": "usdc",
      "outputs": [
        {
          "internalType": "address",
          "name": "",
          "type": "address"
        }
      ],
      "stateMutability": "view",
      "type": "function"
    },
    {
      "inputs": [],
      "name": "usdt",
      "outputs": [
        {
          "internalType": "address",
          "name": "",
          "type": "address"
        }
      ],
      "stateMutability": "view",
      "type": "function"
    }
  ],
  "bytecode": "0x60e06040523480156200001157600080fd5b506040516200238f3803806200238f8339810160408190526200003491620000ca565b6200003f336200005d565b6001600160a01b0392831660a05290821660c0521660805262000114565b600080546001600160a01b038381166001600160a01b0319831681178455604051919092169283917f8be0079c531659141344cd1fd0a4f28419497f9722a3daafe3b4186f6b6457e09190a35050565b80516001600160a01b0381168114620000c557600080fd5b919050565b600080600060608486031215620000e057600080fd5b620000eb84620000ad565b9250620000fb60208501620000ad565b91506200010b60408501620000ad565b90509250925092565b60805160a05160c0516122136200017c6000396000818161015a01528181610a8201528181610e400152610edc01526000818161010901528181610ad801528181610f5d0152610ff401526000818161033901528181610e6d0152610f8501526122136000f3fe608060405234801561001057600080fd5b50600436106100ea5760003560e01c80638da5cb5b1161008c578063a7343f4011610066578063a7343f40146102f1578063b4d1d7951461031d578063c45a015514610334578063f2fde38b1461035b57600080fd5b80638da5cb5b146101bd5780638ff302a0146101db5780639878cbb3146102bb57600080fd5b806348d23bd3116100c857806348d23bd31461017c5780634ac8c2cd1461018f578063715018a6146101a25780638b3a60e5146101aa57600080fd5b80631c1b8772146100ef5780632f48ab7d146101045780633e413bee14610155575b600080fd5b6101026100fd366004611ccd565b61036e565b005b61012b7f000000000000000000000000000000000000000000000000000000000000000081565b60405173ffffffffffffffffffffffffffffffffffffffff90911681526020015b60405180910390f35b61012b7f000000000000000000000000000000000000000000000000000000000000000081565b61010261018a366004611dd9565b61065b565b61010261019d366004611e33565b6106ef565b61010261072f565b6101026101b8366004611dd9565b6107bc565b60005473ffffffffffffffffffffffffffffffffffffffff1661012b565b61025e6101e9366004611ccd565b60026020818152600092835260409283902080546001820154938201548551808501875260038401547bffffffffffffffffffffffffffffffffffffffffffffffffffffffff9081168252875195860190975260048401549096168452600590920154909463ffffffff909216929060ff1686565b60408051968752602087019590955263ffffffff90931693850193909352517bffffffffffffffffffffffffffffffffffffffffffffffffffffffff908116606085015291519091166080830152151560a082015260c00161014c565b61012b6102c9366004611ccd565b60016020526000908152604090205473ffffffffffffffffffffffffffffffffffffffff1681565b6103046102ff366004611ccd565b610a7d565b6040805160ff909316835260208301919091520161014c565b61032661070881565b60405190815260200161014c565b61012b7f000000000000000000000000000000000000000000000000000000000000000081565b610102610369366004611ccd565b610ccb565b600061037982610dfb565b509050600080600061038a84611097565b73ffffffffffffffffffffffffffffffffffffffff88166000908152600260205260409020600581015493965091945092509060ff166104ea5760008060008773ffffffffffffffffffffffffffffffffffffffff16630902f1ac6040518163ffffffff1660e01b8152600401606060405180830381865afa158015610414573d6000803e3d6000fd5b505050506040513d601f19601f820116820180604052508101906104389190611e8e565b925092509250826dffffffffffffffffffffffffffff1660001415801561046e57506dffffffffffffffffffffffffffff821615155b156104df5760058401805460017fffffffffffffffffffffffffffffffffffffffffffffffffffffffffffffff0090911681179091556002850180547fffffffffffffffffffffffffffffffffffffffffffffffffffffffff000000001663ffffffff841617905587855584018690555b505050505050505050565b60028101546000906105029063ffffffff1684611f0d565b90506107088163ffffffff16106106525760405180602001604052808263ffffffff168460000154886105359190611f32565b61053f9190611f78565b7bffffffffffffffffffffffffffffffffffffffffffffffffffffffff90811690915290516003840180547fffffffff00000000000000000000000000000000000000000000000000000000169190921617905560408051602081019091526001830154819063ffffffff8416906105b79088611f32565b6105c19190611f78565b7bffffffffffffffffffffffffffffffffffffffffffffffffffffffff90811690915290516004840180547fffffffff000000000000000000000000000000000000000000000000000000001691909216179055848255600182018490556002820180547fffffffffffffffffffffffffffffffffffffffffffffffffffffffff000000001663ffffffff85161790555b50505050505050565b60005473ffffffffffffffffffffffffffffffffffffffff1633146106e1576040517f08c379a000000000000000000000000000000000000000000000000000000000815260206004820181905260248201527f4f776e61626c653a2063616c6c6572206973206e6f7420746865206f776e657260448201526064015b60405180910390fd5b6106eb82826107bc565b5050565b60005b81518110156106eb5761071d82828151811061071057610710611f8c565b602002602001015161036e565b8061072781611fbb565b9150506106f2565b60005473ffffffffffffffffffffffffffffffffffffffff1633146107b0576040517f08c379a000000000000000000000000000000000000000000000000000000000815260206004820181905260248201527f4f776e61626c653a2063616c6c6572206973206e6f7420746865206f776e657260448201526064016106d8565b6107ba60006112fb565b565b60005473ffffffffffffffffffffffffffffffffffffffff16331461083d576040517f08c379a000000000000000000000000000000000000000000000000000000000815260206004820181905260248201527f4f776e61626c653a2063616c6c6572206973206e6f7420746865206f776e657260448201526064016106d8565b80518251146108a8576040517f08c379a000000000000000000000000000000000000000000000000000000000815260206004820152600b60248201527f4e6f74206d61746368657300000000000000000000000000000000000000000060448201526064016106d8565b60005b8251811015610a7857600073ffffffffffffffffffffffffffffffffffffffff168382815181106108de576108de611f8c565b602002602001015173ffffffffffffffffffffffffffffffffffffffff1614158061094f5750600073ffffffffffffffffffffffffffffffffffffffff1682828151811061092e5761092e611f8c565b602002602001015173ffffffffffffffffffffffffffffffffffffffff1614155b6109b5576040517f08c379a000000000000000000000000000000000000000000000000000000000815260206004820152601460248201527f416464726573732030782064657465637465642100000000000000000000000060448201526064016106d8565b8181815181106109c7576109c7611f8c565b6020026020010151600160008584815181106109e5576109e5611f8c565b602002602001015173ffffffffffffffffffffffffffffffffffffffff1673ffffffffffffffffffffffffffffffffffffffff16815260200190815260200160002060006101000a81548173ffffffffffffffffffffffffffffffffffffffff021916908373ffffffffffffffffffffffffffffffffffffffff1602179055508080610a7090611fbb565b9150506108ab565b505050565b6000807f000000000000000000000000000000000000000000000000000000000000000073ffffffffffffffffffffffffffffffffffffffff168373ffffffffffffffffffffffffffffffffffffffff16141580610b2757507f000000000000000000000000000000000000000000000000000000000000000073ffffffffffffffffffffffffffffffffffffffff168373ffffffffffffffffffffffffffffffffffffffff1614155b80610b47575073ffffffffffffffffffffffffffffffffffffffff831615155b610bad576040517f08c379a000000000000000000000000000000000000000000000000000000000815260206004820152601460248201527f546f6b656e2041646472657373204572726f722100000000000000000000000060448201526064016106d8565b73ffffffffffffffffffffffffffffffffffffffff8084166000908152600160205260409020541680610bed57610be384611370565b9250925050915091565b8073ffffffffffffffffffffffffffffffffffffffff1663313ce5676040518163ffffffff1660e01b8152600401602060405180830381865afa158015610c38573d6000803e3d6000fd5b505050506040513d601f19601f82011682018060405250810190610c5c9190611ff4565b8173ffffffffffffffffffffffffffffffffffffffff166350d25bcd6040518163ffffffff1660e01b8152600401602060405180830381865afa158015610ca7573d6000803e3d6000fd5b505050506040513d601f19601f82011682018060405250810190610be39190612017565b60005473ffffffffffffffffffffffffffffffffffffffff163314610d4c576040517f08c379a000000000000000000000000000000000000000000000000000000000815260206004820181905260248201527f4f776e61626c653a2063616c6c6572206973206e6f7420746865206f776e657260448201526064016106d8565b73ffffffffffffffffffffffffffffffffffffffff8116610def576040517f08c379a000000000000000000000000000000000000000000000000000000000815260206004820152602660248201527f4f776e61626c653a206e6577206f776e657220697320746865207a65726f206160448201527f646472657373000000000000000000000000000000000000000000000000000060648201526084016106d8565b610df8816112fb565b50565b6040517fe6a4390500000000000000000000000000000000000000000000000000000000815273ffffffffffffffffffffffffffffffffffffffff82811660048301527f00000000000000000000000000000000000000000000000000000000000000008116602483015260009182917f0000000000000000000000000000000000000000000000000000000000000000169063e6a4390590604401602060405180830381865afa158015610eb4573d6000803e3d6000fd5b505050506040513d601f19601f82011682018060405250810190610ed89190612030565b91507f0000000000000000000000000000000000000000000000000000000000000000905073ffffffffffffffffffffffffffffffffffffffff8216611092576040517fe6a4390500000000000000000000000000000000000000000000000000000000815273ffffffffffffffffffffffffffffffffffffffff84811660048301527f0000000000000000000000000000000000000000000000000000000000000000811660248301527f0000000000000000000000000000000000000000000000000000000000000000169063e6a4390590604401602060405180830381865afa158015610fcc573d6000803e3d6000fd5b505050506040513d601f19601f82011682018060405250810190610ff09190612030565b91507f0000000000000000000000000000000000000000000000000000000000000000905073ffffffffffffffffffffffffffffffffffffffff8216611092576040517f08c379a000000000000000000000000000000000000000000000000000000000815260206004820152601260248201527f706f6f6c20646f65736e2774206578697374000000000000000000000000000060448201526064016106d8565b915091565b60008060006110a4611732565b90508373ffffffffffffffffffffffffffffffffffffffff16635909c0d56040518163ffffffff1660e01b8152600401602060405180830381865afa1580156110f1573d6000803e3d6000fd5b505050506040513d601f19601f820116820180604052508101906111159190612017565b92508373ffffffffffffffffffffffffffffffffffffffff16635a3d54936040518163ffffffff1660e01b8152600401602060405180830381865afa158015611162573d6000803e3d6000fd5b505050506040513d601f19601f820116820180604052508101906111869190612017565b915060008060008673ffffffffffffffffffffffffffffffffffffffff16630902f1ac6040518163ffffffff1660e01b8152600401606060405180830381865afa1580156111d8573d6000803e3d6000fd5b505050506040513d601f19601f820116820180604052508101906111fc9190611e8e565b9250925092508363ffffffff168163ffffffff16146112f15760006112218286611f0d565b90508063ffffffff16611254846dffffffffffffffffffffffffffff16866dffffffffffffffffffffffffffff16611748565b5161127d91907bffffffffffffffffffffffffffffffffffffffffffffffffffffffff1661204d565b611287908861208a565b96508063ffffffff166112ba856dffffffffffffffffffffffffffff16856dffffffffffffffffffffffffffff16611748565b516112e391907bffffffffffffffffffffffffffffffffffffffffffffffffffffffff1661204d565b6112ed908761208a565b9550505b5050509193909250565b6000805473ffffffffffffffffffffffffffffffffffffffff8381167fffffffffffffffffffffffff0000000000000000000000000000000000000000831681178455604051919092169283917f8be0079c531659141344cd1fd0a4f28419497f9722a3daafe3b4186f6b6457e09190a35050565b60008060008061137f85610dfb565b91509150600082905060008673ffffffffffffffffffffffffffffffffffffffff1663313ce5676040518163ffffffff1660e01b8152600401602060405180830381865afa1580156113d5573d6000803e3d6000fd5b505050506040513d601f19601f820116820180604052508101906113f99190611ff4565b95508590508173ffffffffffffffffffffffffffffffffffffffff16630dfe16816040518163ffffffff1660e01b8152600401602060405180830381865afa158015611449573d6000803e3d6000fd5b505050506040513d601f19601f8201168201806040525081019061146d9190612030565b73ffffffffffffffffffffffffffffffffffffffff168773ffffffffffffffffffffffffffffffffffffffff1614156115305761151561150e6114b183600a6121ba565b73ffffffffffffffffffffffffffffffffffffffff8a1660009081526002602090815260409182902082519182019092526003909101547bffffffffffffffffffffffffffffffffffffffffffffffffffffffff16815290611909565b5160701c90565b71ffffffffffffffffffffffffffffffffffff1694506116b8565b8173ffffffffffffffffffffffffffffffffffffffff1663d21220a76040518163ffffffff1660e01b8152600401602060405180830381865afa15801561157b573d6000803e3d6000fd5b505050506040513d601f19601f8201168201806040525081019061159f9190612030565b73ffffffffffffffffffffffffffffffffffffffff168773ffffffffffffffffffffffffffffffffffffffff1614611633576040517f08c379a000000000000000000000000000000000000000000000000000000000815260206004820152600d60248201527f494e56414c49445f544f4b454e0000000000000000000000000000000000000060448201526064016106d8565b6116a161150e61164483600a6121ba565b73ffffffffffffffffffffffffffffffffffffffff8a1660009081526002602090815260409182902082519182019092526004909101547bffffffffffffffffffffffffffffffffffffffffffffffffffffffff16815290611909565b71ffffffffffffffffffffffffffffffffffff1694505b8273ffffffffffffffffffffffffffffffffffffffff1663313ce5676040518163ffffffff1660e01b8152600401602060405180830381865afa158015611703573d6000803e3d6000fd5b505050506040513d601f19601f820116820180604052508101906117279190611ff4565b955050505050915091565b6000611743640100000000426121c9565b905090565b604080516020810190915260008152600082116117e7576040517f08c379a000000000000000000000000000000000000000000000000000000000815260206004820152602660248201527f4669786564506f696e743a3a6672616374696f6e3a206469766973696f6e206260448201527f79207a65726f000000000000000000000000000000000000000000000000000060648201526084016106d8565b826118015750604080516020810190915260008152611903565b71ffffffffffffffffffffffffffffffffffff83116118e757600061182a83607086901b611f78565b90507bffffffffffffffffffffffffffffffffffffffffffffffffffffffff8111156118b2576040517f08c379a000000000000000000000000000000000000000000000000000000000815260206004820152601e60248201527f4669786564506f696e743a3a6672616374696f6e3a206f766572666c6f77000060448201526064016106d8565b6040518060200160405280827bffffffffffffffffffffffffffffffffffffffffffffffffffffffff16815250915050611903565b600061182a846e010000000000000000000000000000856119d6565b92915050565b604080516020810190915260008152600082158061195b575083517bffffffffffffffffffffffffffffffffffffffffffffffffffffffff168361194d818361204d565b92506119599083611f78565b145b6119c1576040517f08c379a000000000000000000000000000000000000000000000000000000000815260206004820152601960248201527f4669786564506f696e743a3a6d756c3a206f766572666c6f770000000000000060448201526064016106d8565b60408051602081019091529081529392505050565b60008060006119e58686611aba565b91509150600084806119f9576119f9611f49565b868809905082811115611a1457611a11600183611f32565b91505b611a1e8184611f32565b925081611a3957611a2f8584611f78565b9350505050611ab3565b848210611aa2576040517f08c379a000000000000000000000000000000000000000000000000000000000815260206004820152601a60248201527f46756c6c4d6174683a2046554c4c4449565f4f564552464c4f5700000000000060448201526064016106d8565b611aad838387611b1a565b93505050505b9392505050565b600080807fffffffffffffffffffffffffffffffffffffffffffffffffffffffffffffffff8486099050611aee848661204d565b9250611afa8382611f32565b915082811015611b1257611b0f600183611f32565b91505b509250929050565b600080611b298319600161208a565b83169050611b378184611f78565b9250611b438186611f78565b945080611b528119600161208a565b611b5c9190611f78565b611b6790600161208a565b611b71908561204d565b611b7b908661208a565b94506001611b89818561204d565b611b94906002611f32565b611b9e908261204d565b9050611baa818561204d565b611bb5906002611f32565b611bbf908261204d565b9050611bcb818561204d565b611bd6906002611f32565b611be0908261204d565b9050611bec818561204d565b611bf7906002611f32565b611c01908261204d565b9050611c0d818561204d565b611c18906002611f32565b611c22908261204d565b9050611c2e818561204d565b611c39906002611f32565b611c43908261204d565b9050611c4f818561204d565b611c5a906002611f32565b611c64908261204d565b9050611c70818561204d565b611c7b906002611f32565b611c85908261204d565b9050611c91818761204d565b9695505050505050565b73ffffffffffffffffffffffffffffffffffffffff81168114610df857600080fd5b8035611cc881611c9b565b919050565b600060208284031215611cdf57600080fd5b8135611ab381611c9b565b7f4e487b7100000000000000000000000000000000000000000000000000000000600052604160045260246000fd5b600082601f830112611d2a57600080fd5b8135602067ffffffffffffffff80831115611d4757611d47611cea565b8260051b6040517fffffffffffffffffffffffffffffffffffffffffffffffffffffffffffffffe0603f83011681018181108482111715611d8a57611d8a611cea565b604052938452858101830193838101925087851115611da857600080fd5b83870191505b84821015611dce57611dbf82611cbd565b83529183019190830190611dae565b979650505050505050565b60008060408385031215611dec57600080fd5b823567ffffffffffffffff80821115611e0457600080fd5b611e1086838701611d19565b93506020850135915080821115611e2657600080fd5b50611b0f85828601611d19565b600060208284031215611e4557600080fd5b813567ffffffffffffffff811115611e5c57600080fd5b611e6884828501611d19565b949350505050565b80516dffffffffffffffffffffffffffff81168114611cc857600080fd5b600080600060608486031215611ea357600080fd5b611eac84611e70565b9250611eba60208501611e70565b9150604084015163ffffffff81168114611ed357600080fd5b809150509250925092565b7f4e487b7100000000000000000000000000000000000000000000000000000000600052601160045260246000fd5b600063ffffffff83811690831681811015611f2a57611f2a611ede565b039392505050565b600082821015611f4457611f44611ede565b500390565b7f4e487b7100000000000000000000000000000000000000000000000000000000600052601260045260246000fd5b600082611f8757611f87611f49565b500490565b7f4e487b7100000000000000000000000000000000000000000000000000000000600052603260045260246000fd5b60007fffffffffffffffffffffffffffffffffffffffffffffffffffffffffffffffff821415611fed57611fed611ede565b5060010190565b60006020828403121561200657600080fd5b815160ff81168114611ab357600080fd5b60006020828403121561202957600080fd5b5051919050565b60006020828403121561204257600080fd5b8151611ab381611c9b565b6000817fffffffffffffffffffffffffffffffffffffffffffffffffffffffffffffffff048311821515161561208557612085611ede565b500290565b6000821982111561209d5761209d611ede565b500190565b600181815b80851115611b1257817fffffffffffffffffffffffffffffffffffffffffffffffffffffffffffffffff048211156120e1576120e1611ede565b808516156120ee57918102915b93841c93908002906120a7565b60008261210a57506001611903565b8161211757506000611903565b816001811461212d576002811461213757612153565b6001915050611903565b60ff84111561214857612148611ede565b50506001821b611903565b5060208310610133831016604e8410600b8410161715612176575081810a611903565b61218083836120a2565b807fffffffffffffffffffffffffffffffffffffffffffffffffffffffffffffffff048211156121b2576121b2611ede565b029392505050565b6000611ab360ff8416836120fb565b6000826121d8576121d8611f49565b50069056fea2646970667358221220b984de317caf1e7e4810a1c4e90dad398645bc20783f70dbb64398b3ad8a4adb64736f6c634300080a0033",
  "linkReferences": {},
  "deployedLinkReferences": {}
}