{
  "_format": "hh-sol-artifact-1",
  "contractName": "Stash",
  "sourceName": "contracts/Stash.sol",
  "abi": [
    {
      "inputs": [
        {
          "internalType": "address",
          "name": "_joeRouter",
          "type": "address"
        },
        {
          "internalType": "address",
          "name": "_autoLiquidityReceiver",
          "type": "address"
        },
        {
          "internalType": "address",
          "name": "_treasuryReceiver",
          "type": "address"
        },
        {
          "internalType": "address",
          "name": "_stashInsuranceFundReceiver",
          "type": "address"
        },
        {
          "internalType": "address",
          "name": "_firePit",
          "type": "address"
        }
      ],
      "stateMutability": "nonpayable",
      "type": "constructor"
    },
    {
      "anonymous": false,
      "inputs": [
        {
          "indexed": true,
          "internalType": "address",
          "name": "owner",
          "type": "address"
        },
        {
          "indexed": true,
          "internalType": "address",
          "name": "spender",
          "type": "address"
        },
        {
          "indexed": false,
          "internalType": "uint256",
          "name": "value",
          "type": "uint256"
        }
      ],
      "name": "Approval",
      "type": "event"
    },
    {
      "anonymous": false,
      "inputs": [
        {
          "indexed": true,
          "internalType": "uint256",
          "name": "epoch",
          "type": "uint256"
        },
        {
          "indexed": false,
          "internalType": "uint256",
          "name": "totalSupply",
          "type": "uint256"
        }
      ],
      "name": "LogRebase",
      "type": "event"
    },
    {
      "anonymous": false,
      "inputs": [
        {
          "indexed": true,
          "internalType": "address",
          "name": "previousOwner",
          "type": "address"
        },
        {
          "indexed": true,
          "internalType": "address",
          "name": "newOwner",
          "type": "address"
        }
      ],
      "name": "OwnershipTransferred",
      "type": "event"
    },
    {
      "anonymous": false,
      "inputs": [
        {
          "indexed": true,
          "internalType": "address",
          "name": "from",
          "type": "address"
        },
        {
          "indexed": true,
          "internalType": "address",
          "name": "to",
          "type": "address"
        },
        {
          "indexed": false,
          "internalType": "uint256",
          "name": "value",
          "type": "uint256"
        }
      ],
      "name": "Transfer",
      "type": "event"
    },
    {
      "inputs": [],
      "name": "MAX_UINT256",
      "outputs": [
        {
          "internalType": "uint256",
          "name": "",
          "type": "uint256"
        }
      ],
      "stateMutability": "view",
      "type": "function"
    },
    {
      "inputs": [],
      "name": "RATE_DECIMALS",
      "outputs": [
        {
          "internalType": "uint8",
          "name": "",
          "type": "uint8"
        }
      ],
      "stateMutability": "view",
      "type": "function"
    },
    {
      "inputs": [],
      "name": "_autoAddLiquidity",
      "outputs": [
        {
          "internalType": "bool",
          "name": "",
          "type": "bool"
        }
      ],
      "stateMutability": "view",
      "type": "function"
    },
    {
      "inputs": [],
      "name": "_autoRebase",
      "outputs": [
        {
          "internalType": "bool",
          "name": "",
          "type": "bool"
        }
      ],
      "stateMutability": "view",
      "type": "function"
    },
    {
      "inputs": [],
      "name": "_initRebaseStartTime",
      "outputs": [
        {
          "internalType": "uint256",
          "name": "",
          "type": "uint256"
        }
      ],
      "stateMutability": "view",
      "type": "function"
    },
    {
      "inputs": [],
      "name": "_lastAddLiquidityTime",
      "outputs": [
        {
          "internalType": "uint256",
          "name": "",
          "type": "uint256"
        }
      ],
      "stateMutability": "view",
      "type": "function"
    },
    {
      "inputs": [],
      "name": "_lastRebasedTime",
      "outputs": [
        {
          "internalType": "uint256",
          "name": "",
          "type": "uint256"
        }
      ],
      "stateMutability": "view",
      "type": "function"
    },
    {
      "inputs": [],
      "name": "_totalSupply",
      "outputs": [
        {
          "internalType": "uint256",
          "name": "",
          "type": "uint256"
        }
      ],
      "stateMutability": "view",
      "type": "function"
    },
    {
      "inputs": [
        {
          "internalType": "address",
          "name": "owner_",
          "type": "address"
        },
        {
          "internalType": "address",
          "name": "spender",
          "type": "address"
        }
      ],
      "name": "allowance",
      "outputs": [
        {
          "internalType": "uint256",
          "name": "",
          "type": "uint256"
        }
      ],
      "stateMutability": "view",
      "type": "function"
    },
    {
      "inputs": [
        {
          "internalType": "address",
          "name": "spender",
          "type": "address"
        },
        {
          "internalType": "uint256",
          "name": "value",
          "type": "uint256"
        }
      ],
      "name": "approve",
      "outputs": [
        {
          "internalType": "bool",
          "name": "",
          "type": "bool"
        }
      ],
      "stateMutability": "nonpayable",
      "type": "function"
    },
    {
      "inputs": [],
      "name": "autoLiquidityReceiver",
      "outputs": [
        {
          "internalType": "address",
          "name": "",
          "type": "address"
        }
      ],
      "stateMutability": "view",
      "type": "function"
    },
    {
      "inputs": [
        {
          "internalType": "address",
          "name": "who",
          "type": "address"
        }
      ],
      "name": "balanceOf",
      "outputs": [
        {
          "internalType": "uint256",
          "name": "",
          "type": "uint256"
        }
      ],
      "stateMutability": "view",
      "type": "function"
    },
    {
      "inputs": [
        {
          "internalType": "address",
          "name": "",
          "type": "address"
        }
      ],
      "name": "blacklist",
      "outputs": [
        {
          "internalType": "bool",
          "name": "",
          "type": "bool"
        }
      ],
      "stateMutability": "view",
      "type": "function"
    },
    {
      "inputs": [
        {
          "internalType": "address",
          "name": "_addr",
          "type": "address"
        }
      ],
      "name": "checkFeeExempt",
      "outputs": [
        {
          "internalType": "bool",
          "name": "",
          "type": "bool"
        }
      ],
      "stateMutability": "view",
      "type": "function"
    },
    {
      "inputs": [],
      "name": "decimals",
      "outputs": [
        {
          "internalType": "uint8",
          "name": "",
          "type": "uint8"
        }
      ],
      "stateMutability": "pure",
      "type": "function"
    },
    {
      "inputs": [
        {
          "internalType": "address",
          "name": "spender",
          "type": "address"
        },
        {
          "internalType": "uint256",
          "name": "subtractedValue",
          "type": "uint256"
        }
      ],
      "name": "decreaseAllowance",
      "outputs": [
        {
          "internalType": "bool",
          "name": "",
          "type": "bool"
        }
      ],
      "stateMutability": "nonpayable",
      "type": "function"
    },
    {
      "inputs": [],
      "name": "feeDenominator",
      "outputs": [
        {
          "internalType": "uint256",
          "name": "",
          "type": "uint256"
        }
      ],
      "stateMutability": "view",
      "type": "function"
    },
    {
      "inputs": [],
      "name": "firePit",
      "outputs": [
        {
          "internalType": "address",
          "name": "",
          "type": "address"
        }
      ],
      "stateMutability": "view",
      "type": "function"
    },
    {
      "inputs": [],
      "name": "firePitFee",
      "outputs": [
        {
          "internalType": "uint256",
          "name": "",
          "type": "uint256"
        }
      ],
      "stateMutability": "view",
      "type": "function"
    },
    {
      "inputs": [],
      "name": "getCirculatingSupply",
      "outputs": [
        {
          "internalType": "uint256",
          "name": "",
          "type": "uint256"
        }
      ],
      "stateMutability": "view",
      "type": "function"
    },
    {
      "inputs": [
        {
          "internalType": "uint256",
          "name": "accuracy",
          "type": "uint256"
        }
      ],
      "name": "getLiquidityBacking",
      "outputs": [
        {
          "internalType": "uint256",
          "name": "",
          "type": "uint256"
        }
      ],
      "stateMutability": "view",
      "type": "function"
    },
    {
      "inputs": [
        {
          "internalType": "address",
          "name": "spender",
          "type": "address"
        },
        {
          "internalType": "uint256",
          "name": "addedValue",
          "type": "uint256"
        }
      ],
      "name": "increaseAllowance",
      "outputs": [
        {
          "internalType": "bool",
          "name": "",
          "type": "bool"
        }
      ],
      "stateMutability": "nonpayable",
      "type": "function"
    },
    {
      "inputs": [],
      "name": "isNotInSwap",
      "outputs": [
        {
          "internalType": "bool",
          "name": "",
          "type": "bool"
        }
      ],
      "stateMutability": "view",
      "type": "function"
    },
    {
      "inputs": [],
      "name": "liquidityFee",
      "outputs": [
        {
          "internalType": "uint256",
          "name": "",
          "type": "uint256"
        }
      ],
      "stateMutability": "view",
      "type": "function"
    },
    {
      "inputs": [],
      "name": "manualSync",
      "outputs": [],
      "stateMutability": "nonpayable",
      "type": "function"
    },
    {
      "inputs": [],
      "name": "name",
      "outputs": [
        {
          "internalType": "string",
          "name": "",
          "type": "string"
        }
      ],
      "stateMutability": "pure",
      "type": "function"
    },
    {
      "inputs": [],
      "name": "owner",
      "outputs": [
        {
          "internalType": "address",
          "name": "",
          "type": "address"
        }
      ],
      "stateMutability": "view",
      "type": "function"
    },
    {
      "inputs": [],
      "name": "pair",
      "outputs": [
        {
          "internalType": "address",
          "name": "",
          "type": "address"
        }
      ],
      "stateMutability": "view",
      "type": "function"
    },
    {
      "inputs": [],
      "name": "pairAddress",
      "outputs": [
        {
          "internalType": "address",
          "name": "",
          "type": "address"
        }
      ],
      "stateMutability": "view",
      "type": "function"
    },
    {
      "inputs": [],
      "name": "pairContract",
      "outputs": [
        {
          "internalType": "contract IJoePair",
          "name": "",
          "type": "address"
        }
      ],
      "stateMutability": "view",
      "type": "function"
    },
    {
      "inputs": [],
      "name": "renounceOwnership",
      "outputs": [],
      "stateMutability": "nonpayable",
      "type": "function"
    },
    {
      "inputs": [],
      "name": "router",
      "outputs": [
        {
          "internalType": "contract IJoeRouter",
          "name": "",
          "type": "address"
        }
      ],
      "stateMutability": "view",
      "type": "function"
    },
    {
      "inputs": [],
      "name": "sellFee",
      "outputs": [
        {
          "internalType": "uint256",
          "name": "",
          "type": "uint256"
        }
      ],
      "stateMutability": "view",
      "type": "function"
    },
    {
      "inputs": [
        {
          "internalType": "bool",
          "name": "_flag",
          "type": "bool"
        }
      ],
      "name": "setAutoAddLiquidity",
      "outputs": [],
      "stateMutability": "nonpayable",
      "type": "function"
    },
    {
      "inputs": [
        {
          "internalType": "bool",
          "name": "_flag",
          "type": "bool"
        }
      ],
      "name": "setAutoRebase",
      "outputs": [],
      "stateMutability": "nonpayable",
      "type": "function"
    },
    {
      "inputs": [
        {
          "internalType": "address",
          "name": "_botAddress",
          "type": "address"
        },
        {
          "internalType": "bool",
          "name": "_flag",
          "type": "bool"
        }
      ],
      "name": "setBotBlacklist",
      "outputs": [],
      "stateMutability": "nonpayable",
      "type": "function"
    },
    {
      "inputs": [
        {
          "internalType": "address",
          "name": "_autoLiquidityReceiver",
          "type": "address"
        },
        {
          "internalType": "address",
          "name": "_treasuryReceiver",
          "type": "address"
        },
        {
          "internalType": "address",
          "name": "_stashInsuranceFundReceiver",
          "type": "address"
        },
        {
          "internalType": "address",
          "name": "_firePit",
          "type": "address"
        }
      ],
      "name": "setFeeReceivers",
      "outputs": [],
      "stateMutability": "nonpayable",
      "type": "function"
    },
    {
      "inputs": [
        {
          "internalType": "address",
          "name": "_address",
          "type": "address"
        }
      ],
      "name": "setLP",
      "outputs": [],
      "stateMutability": "nonpayable",
      "type": "function"
    },
    {
      "inputs": [
        {
          "internalType": "address",
          "name": "_pairAddress",
          "type": "address"
        }
      ],
      "name": "setPairAddress",
      "outputs": [],
      "stateMutability": "nonpayable",
      "type": "function"
    },
    {
      "inputs": [
        {
          "internalType": "address",
          "name": "_addr",
          "type": "address"
        }
      ],
      "name": "setWhitelist",
      "outputs": [],
      "stateMutability": "nonpayable",
      "type": "function"
    },
    {
      "inputs": [],
      "name": "stashInsuranceFundFee",
      "outputs": [
        {
          "internalType": "uint256",
          "name": "",
          "type": "uint256"
        }
      ],
      "stateMutability": "view",
      "type": "function"
    },
    {
      "inputs": [],
      "name": "stashInsuranceFundReceiver",
      "outputs": [
        {
          "internalType": "address",
          "name": "",
          "type": "address"
        }
      ],
      "stateMutability": "view",
      "type": "function"
    },
    {
      "inputs": [],
      "name": "swapEnabled",
      "outputs": [
        {
          "internalType": "bool",
          "name": "",
          "type": "bool"
        }
      ],
      "stateMutability": "view",
      "type": "function"
    },
    {
      "inputs": [],
      "name": "symbol",
      "outputs": [
        {
          "internalType": "string",
          "name": "",
          "type": "string"
        }
      ],
      "stateMutability": "pure",
      "type": "function"
    },
    {
      "inputs": [],
      "name": "totalFee",
      "outputs": [
        {
          "internalType": "uint256",
          "name": "",
          "type": "uint256"
        }
      ],
      "stateMutability": "view",
      "type": "function"
    },
    {
      "inputs": [],
      "name": "totalSupply",
      "outputs": [
        {
          "internalType": "uint256",
          "name": "",
          "type": "uint256"
        }
      ],
      "stateMutability": "view",
      "type": "function"
    },
    {
      "inputs": [
        {
          "internalType": "address",
          "name": "to",
          "type": "address"
        },
        {
          "internalType": "uint256",
          "name": "value",
          "type": "uint256"
        }
      ],
      "name": "transfer",
      "outputs": [
        {
          "internalType": "bool",
          "name": "",
          "type": "bool"
        }
      ],
      "stateMutability": "nonpayable",
      "type": "function"
    },
    {
      "inputs": [
        {
          "internalType": "address",
          "name": "from",
          "type": "address"
        },
        {
          "internalType": "address",
          "name": "to",
          "type": "address"
        },
        {
          "internalType": "uint256",
          "name": "value",
          "type": "uint256"
        }
      ],
      "name": "transferFrom",
      "outputs": [
        {
          "internalType": "bool",
          "name": "",
          "type": "bool"
        }
      ],
      "stateMutability": "nonpayable",
      "type": "function"
    },
    {
      "inputs": [
        {
          "internalType": "address",
          "name": "newOwner",
          "type": "address"
        }
      ],
      "name": "transferOwnership",
      "outputs": [],
      "stateMutability": "nonpayable",
      "type": "function"
    },
    {
      "inputs": [],
      "name": "treasuryFee",
      "outputs": [
        {
          "internalType": "uint256",
          "name": "",
          "type": "uint256"
        }
      ],
      "stateMutability": "view",
      "type": "function"
    },
    {
      "inputs": [],
      "name": "treasuryReceiver",
      "outputs": [
        {
          "internalType": "address",
          "name": "",
          "type": "address"
        }
      ],
      "stateMutability": "view",
      "type": "function"
    },
    {
      "inputs": [],
      "name": "withdrawAllToTreasury",
      "outputs": [],
      "stateMutability": "nonpayable",
      "type": "function"
    },
    {
      "stateMutability": "payable",
      "type": "receive"
    }
  ],
  "bytecode": "0x608060405260286003556019600455603260055560146006556019600755620000716007546200005d600554620000496004546003546200092960201b6200260b1790919060201c565b6200092960201b6200260b1790919060201c565b6200092960201b6200260b1790919060201c565b6008556103e860095561dead600a60006101000a81548173ffffffffffffffffffffffffffffffffffffffff021916908373ffffffffffffffffffffffffffffffffffffffff1602179055506000600b60006101000a81548173ffffffffffffffffffffffffffffffffffffffff021916908373ffffffffffffffffffffffffffffffffffffffff1602179055506001601060146101000a81548160ff0219169083151502179055506000601260146101000a81548160ff0219169083151502179055503480156200014257600080fd5b5060405162005cb638038062005cb6833981810160405281019062000168919062000a8f565b620001886200017c6200094160201b60201c565b6200094960201b60201c565b84601160006101000a81548173ffffffffffffffffffffffffffffffffffffffff021916908373ffffffffffffffffffffffffffffffffffffffff160217905550601160009054906101000a900473ffffffffffffffffffffffffffffffffffffffff1673ffffffffffffffffffffffffffffffffffffffff1663c45a01556040518163ffffffff1660e01b8152600401602060405180830381865afa15801562000237573d6000803e3d6000fd5b505050506040513d601f19601f820116820180604052508101906200025d919062000b17565b73ffffffffffffffffffffffffffffffffffffffff1663c9c65396601160009054906101000a900473ffffffffffffffffffffffffffffffffffffffff1673ffffffffffffffffffffffffffffffffffffffff166373b295c26040518163ffffffff1660e01b8152600401602060405180830381865afa158015620002e6573d6000803e3d6000fd5b505050506040513d601f19601f820116820180604052508101906200030c919062000b17565b306040518363ffffffff1660e01b81526004016200032c92919062000b5a565b6020604051808303816000875af11580156200034c573d6000803e3d6000fd5b505050506040513d601f19601f8201168201806040525081019062000372919062000b17565b601260006101000a81548173ffffffffffffffffffffffffffffffffffffffff021916908373ffffffffffffffffffffffffffffffffffffffff16021790555083600c60006101000a81548173ffffffffffffffffffffffffffffffffffffffff021916908373ffffffffffffffffffffffffffffffffffffffff16021790555082600d60006101000a81548173ffffffffffffffffffffffffffffffffffffffff021916908373ffffffffffffffffffffffffffffffffffffffff16021790555081600e60006101000a81548173ffffffffffffffffffffffffffffffffffffffff021916908373ffffffffffffffffffffffffffffffffffffffff16021790555080600f60006101000a81548173ffffffffffffffffffffffffffffffffffffffff021916908373ffffffffffffffffffffffffffffffffffffffff160217905550600019601960003073ffffffffffffffffffffffffffffffffffffffff1673ffffffffffffffffffffffffffffffffffffffff1681526020019081526020016000206000601160009054906101000a900473ffffffffffffffffffffffffffffffffffffffff1673ffffffffffffffffffffffffffffffffffffffff1673ffffffffffffffffffffffffffffffffffffffff16815260200190815260200160002081905550601260009054906101000a900473ffffffffffffffffffffffffffffffffffffffff16601060006101000a81548173ffffffffffffffffffffffffffffffffffffffff021916908373ffffffffffffffffffffffffffffffffffffffff160217905550601260009054906101000a900473ffffffffffffffffffffffffffffffffffffffff16600160006101000a81548173ffffffffffffffffffffffffffffffffffffffff021916908373ffffffffffffffffffffffffffffffffffffffff1602179055506005600a62000631919062000d21565b6204f58862000641919062000d72565b6016819055506005600a62000657919062000d21565b6204f58862000667919062000d72565b60001962000676919062000e02565b60001962000685919062000e3a565b60186000600d60009054906101000a900473ffffffffffffffffffffffffffffffffffffffff1673ffffffffffffffffffffffffffffffffffffffff1673ffffffffffffffffffffffffffffffffffffffff16815260200190815260200160002081905550620007436016546005600a62000701919062000d21565b6204f58862000711919062000d72565b60001962000720919062000e02565b6000196200072f919062000e3a565b62000a0d60201b620026211790919060201c565b60178190555042601381905550426014819055506001601260156101000a81548160ff0219169083151502179055506001601260166101000a81548160ff021916908315150217905550600160026000600d60009054906101000a900473ffffffffffffffffffffffffffffffffffffffff1673ffffffffffffffffffffffffffffffffffffffff1673ffffffffffffffffffffffffffffffffffffffff16815260200190815260200160002060006101000a81548160ff0219169083151502179055506001600260003073ffffffffffffffffffffffffffffffffffffffff1673ffffffffffffffffffffffffffffffffffffffff16815260200190815260200160002060006101000a81548160ff02191690831515021790555062000892600d60009054906101000a900473ffffffffffffffffffffffffffffffffffffffff166200094960201b60201c565b600d60009054906101000a900473ffffffffffffffffffffffffffffffffffffffff1673ffffffffffffffffffffffffffffffffffffffff16600073ffffffffffffffffffffffffffffffffffffffff167fddf252ad1be2c89b69c2b068fc378daa952ba7f163c4a11628f55a4df523b3ef60165460405162000916919062000e86565b60405180910390a3505050505062000f38565b6000818362000939919062000ea3565b905092915050565b600033905090565b60008060009054906101000a900473ffffffffffffffffffffffffffffffffffffffff169050816000806101000a81548173ffffffffffffffffffffffffffffffffffffffff021916908373ffffffffffffffffffffffffffffffffffffffff1602179055508173ffffffffffffffffffffffffffffffffffffffff168173ffffffffffffffffffffffffffffffffffffffff167f8be0079c531659141344cd1fd0a4f28419497f9722a3daafe3b4186f6b6457e060405160405180910390a35050565b6000818362000a1d919062000f00565b905092915050565b600080fd5b600073ffffffffffffffffffffffffffffffffffffffff82169050919050565b600062000a578262000a2a565b9050919050565b62000a698162000a4a565b811462000a7557600080fd5b50565b60008151905062000a898162000a5e565b92915050565b600080600080600060a0868803121562000aae5762000aad62000a25565b5b600062000abe8882890162000a78565b955050602062000ad18882890162000a78565b945050604062000ae48882890162000a78565b935050606062000af78882890162000a78565b925050608062000b0a8882890162000a78565b9150509295509295909350565b60006020828403121562000b305762000b2f62000a25565b5b600062000b408482850162000a78565b91505092915050565b62000b548162000a4a565b82525050565b600060408201905062000b71600083018562000b49565b62000b80602083018462000b49565b9392505050565b7f4e487b7100000000000000000000000000000000000000000000000000000000600052601160045260246000fd5b60008160011c9050919050565b6000808291508390505b600185111562000c155780860481111562000bed5762000bec62000b87565b5b600185161562000bfd5780820291505b808102905062000c0d8562000bb6565b945062000bcd565b94509492505050565b60008262000c30576001905062000d03565b8162000c40576000905062000d03565b816001811462000c59576002811462000c645762000c9a565b600191505062000d03565b60ff84111562000c795762000c7862000b87565b5b8360020a91508482111562000c935762000c9262000b87565b5b5062000d03565b5060208310610133831016604e8410600b841016171562000cd45782820a90508381111562000cce5762000ccd62000b87565b5b62000d03565b62000ce3848484600162000bc3565b9250905081840481111562000cfd5762000cfc62000b87565b5b81810290505b9392505050565b6000819050919050565b600060ff82169050919050565b600062000d2e8262000d0a565b915062000d3b8362000d14565b925062000d6a7fffffffffffffffffffffffffffffffffffffffffffffffffffffffffffffffff848462000c1e565b905092915050565b600062000d7f8262000d0a565b915062000d8c8362000d0a565b9250817fffffffffffffffffffffffffffffffffffffffffffffffffffffffffffffffff048311821515161562000dc85762000dc762000b87565b5b828202905092915050565b7f4e487b7100000000000000000000000000000000000000000000000000000000600052601260045260246000fd5b600062000e0f8262000d0a565b915062000e1c8362000d0a565b92508262000e2f5762000e2e62000dd3565b5b828206905092915050565b600062000e478262000d0a565b915062000e548362000d0a565b92508282101562000e6a5762000e6962000b87565b5b828203905092915050565b62000e808162000d0a565b82525050565b600060208201905062000e9d600083018462000e75565b92915050565b600062000eb08262000d0a565b915062000ebd8362000d0a565b9250827fffffffffffffffffffffffffffffffffffffffffffffffffffffffffffffffff0382111562000ef55762000ef462000b87565b5b828201905092915050565b600062000f0d8262000d0a565b915062000f1a8362000d0a565b92508262000f2d5762000f2c62000dd3565b5b828204905092915050565b614d6e8062000f486000396000f3fe6080604052600436106103035760003560e01c8063753d02a111610190578063a9059cbb116100dc578063d439979011610095578063e15beb801161006f578063e15beb8014610b79578063f2fde38b14610ba2578063f887ea4014610bcb578063f9f92be414610bf65761030a565b8063d439979014610ac2578063d51ed1c814610aff578063dd62ed3e14610b3c5761030a565b8063a9059cbb146109c4578063afb9cf6d14610a01578063bd59558114610a2c578063ca33e64c14610a43578063cc32d17614610a6e578063cfbac92f14610a995761030a565b80639b2912cc11610149578063a457c2d711610123578063a457c2d714610906578063a6cf729314610943578063a8aa1b311461096e578063a8b08982146109995761030a565b80639b2912cc146108875780639b87676c146108b2578063a22d4832146108dd5761030a565b8063753d02a11461079b57806383b4ac68146107b2578063854cff2f146107dd5780638da5cb5b1461080657806395d89b411461083157806398118cb41461085c5761030a565b806333a581d21161024f5780634d709adf116102085780636912652c116101e25780636912652c146106f15780636ddd17131461071c57806370a0823114610747578063715018a6146107845761030a565b80634d709adf146106705780635a604c521461069b57806368381a88146106c65761030a565b806333a581d21461056057806337c9be871461058b57806339509351146105b45780633c8e556d146105f15780633eaaf86b1461061a57806349d98142146106455761030a565b80631df4ccfc116102bc5780632b14ca56116102965780632b14ca56146104b65780632f34d282146104e1578063313ce5671461050a57806332b75683146105355761030a565b80631df4ccfc1461042357806323b872dd1461044e5780632b112e491461048b5761030a565b806306fdde031461030f57806308b1fd8f1461033a578063095ea7b314610365578063180b0d7e146103a257806318160ddd146103cd57806318601972146103f85761030a565b3661030a57005b600080fd5b34801561031b57600080fd5b50610324610c33565b604051610331919061402b565b60405180910390f35b34801561034657600080fd5b5061034f610c70565b60405161035c919061408e565b60405180910390f35b34801561037157600080fd5b5061038c60048036038101906103879190614110565b610c96565b604051610399919061416b565b60405180910390f35b3480156103ae57600080fd5b506103b7610d88565b6040516103c49190614195565b60405180910390f35b3480156103d957600080fd5b506103e2610d8e565b6040516103ef9190614195565b60405180910390f35b34801561040457600080fd5b5061040d610d98565b60405161041a919061408e565b60405180910390f35b34801561042f57600080fd5b50610438610dbe565b6040516104459190614195565b60405180910390f35b34801561045a57600080fd5b50610475600480360381019061047091906141b0565b610dc4565b604051610482919061416b565b60405180910390f35b34801561049757600080fd5b506104a0610fe4565b6040516104ad9190614195565b60405180910390f35b3480156104c257600080fd5b506104cb61111b565b6040516104d89190614195565b60405180910390f35b3480156104ed57600080fd5b5061050860048036038101906105039190614203565b611121565b005b34801561051657600080fd5b5061051f6111e1565b60405161052c919061424c565b60405180910390f35b34801561054157600080fd5b5061054a6111ea565b6040516105579190614195565b60405180910390f35b34801561056c57600080fd5b506105756111f0565b6040516105829190614195565b60405180910390f35b34801561059757600080fd5b506105b260048036038101906105ad9190614293565b6111f6565b005b3480156105c057600080fd5b506105db60048036038101906105d69190614110565b611315565b6040516105e8919061416b565b60405180910390f35b3480156105fd57600080fd5b50610618600480360381019061061391906142d3565b611511565b005b34801561062657600080fd5b5061062f611697565b60405161063c9190614195565b60405180910390f35b34801561065157600080fd5b5061065a61169d565b604051610667919061408e565b60405180910390f35b34801561067c57600080fd5b506106856116c3565b6040516106929190614399565b60405180910390f35b3480156106a757600080fd5b506106b06116e9565b6040516106bd919061424c565b60405180910390f35b3480156106d257600080fd5b506106db6116ee565b6040516106e89190614195565b60405180910390f35b3480156106fd57600080fd5b506107066116f4565b604051610713919061416b565b60405180910390f35b34801561072857600080fd5b50610731611707565b60405161073e919061416b565b60405180910390f35b34801561075357600080fd5b5061076e60048036038101906107699190614203565b61171a565b60405161077b9190614195565b60405180910390f35b34801561079057600080fd5b50610799611777565b005b3480156107a757600080fd5b506107b06117ff565b005b3480156107be57600080fd5b506107c7611883565b6040516107d4919061416b565b60405180910390f35b3480156107e957600080fd5b5061080460048036038101906107ff9190614203565b61189b565b005b34801561081257600080fd5b5061081b611972565b604051610828919061408e565b60405180910390f35b34801561083d57600080fd5b5061084661199b565b604051610853919061402b565b60405180910390f35b34801561086857600080fd5b506108716119d8565b60405161087e9190614195565b60405180910390f35b34801561089357600080fd5b5061089c6119de565b6040516108a99190614195565b60405180910390f35b3480156108be57600080fd5b506108c76119e4565b6040516108d49190614195565b60405180910390f35b3480156108e957600080fd5b5061090460048036038101906108ff9190614203565b6119ea565b005b34801561091257600080fd5b5061092d60048036038101906109289190614110565b611aaa565b60405161093a919061416b565b60405180910390f35b34801561094f57600080fd5b50610958611d3a565b6040516109659190614195565b60405180910390f35b34801561097a57600080fd5b50610983611d40565b604051610990919061408e565b60405180910390f35b3480156109a557600080fd5b506109ae611d66565b6040516109bb919061408e565b60405180910390f35b3480156109d057600080fd5b506109eb60048036038101906109e69190614110565b611d8c565b6040516109f8919061416b565b60405180910390f35b348015610a0d57600080fd5b50610a16611ddf565b604051610a23919061416b565b60405180910390f35b348015610a3857600080fd5b50610a41611df2565b005b348015610a4f57600080fd5b50610a58612177565b604051610a65919061408e565b60405180910390f35b348015610a7a57600080fd5b50610a8361219d565b604051610a909190614195565b60405180910390f35b348015610aa557600080fd5b50610ac06004803603810190610abb91906143b4565b6121a3565b005b348015610ace57600080fd5b50610ae96004803603810190610ae49190614203565b612269565b604051610af6919061416b565b60405180910390f35b348015610b0b57600080fd5b50610b266004803603810190610b2191906143e1565b6122bf565b604051610b339190614195565b60405180910390f35b348015610b4857600080fd5b50610b636004803603810190610b5e919061440e565b612381565b604051610b709190614195565b60405180910390f35b348015610b8557600080fd5b50610ba06004803603810190610b9b91906143b4565b612408565b005b348015610bae57600080fd5b50610bc96004803603810190610bc49190614203565b6124ce565b005b348015610bd757600080fd5b50610be06125c5565b604051610bed919061446f565b60405180910390f35b348015610c0257600080fd5b50610c1d6004803603810190610c189190614203565b6125eb565b604051610c2a919061416b565b60405180910390f35b60606040518060400160405280600581526020017f5374617368000000000000000000000000000000000000000000000000000000815250905090565b600d60009054906101000a900473ffffffffffffffffffffffffffffffffffffffff1681565b600081601960003373ffffffffffffffffffffffffffffffffffffffff1673ffffffffffffffffffffffffffffffffffffffff16815260200190815260200160002060008573ffffffffffffffffffffffffffffffffffffffff1673ffffffffffffffffffffffffffffffffffffffff168152602001908152602001600020819055508273ffffffffffffffffffffffffffffffffffffffff163373ffffffffffffffffffffffffffffffffffffffff167f8c5be1e5ebec7d5bd14f71427d1e84f3dd0314c0f7b2291e5b200ac8c7c3b92584604051610d769190614195565b60405180910390a36001905092915050565b60095481565b6000601654905090565b600e60009054906101000a900473ffffffffffffffffffffffffffffffffffffffff1681565b60085481565b600082600073ffffffffffffffffffffffffffffffffffffffff168173ffffffffffffffffffffffffffffffffffffffff1603610e0057600080fd5b600019601960008773ffffffffffffffffffffffffffffffffffffffff1673ffffffffffffffffffffffffffffffffffffffff16815260200190815260200160002060003373ffffffffffffffffffffffffffffffffffffffff1673ffffffffffffffffffffffffffffffffffffffff1681526020019081526020016000205414610fcc57610f4b836040518060400160405280601681526020017f494e53554646494349454e545f414c4c4f57414e434500000000000000000000815250601960008973ffffffffffffffffffffffffffffffffffffffff1673ffffffffffffffffffffffffffffffffffffffff16815260200190815260200160002060003373ffffffffffffffffffffffffffffffffffffffff1673ffffffffffffffffffffffffffffffffffffffff168152602001908152602001600020546126379092919063ffffffff16565b601960008773ffffffffffffffffffffffffffffffffffffffff1673ffffffffffffffffffffffffffffffffffffffff16815260200190815260200160002060003373ffffffffffffffffffffffffffffffffffffffff1673ffffffffffffffffffffffffffffffffffffffff168152602001908152602001600020819055505b610fd785858561268c565b5060019150509392505050565b600061111660175461110860186000600b60009054906101000a900473ffffffffffffffffffffffffffffffffffffffff1673ffffffffffffffffffffffffffffffffffffffff1673ffffffffffffffffffffffffffffffffffffffff168152602001908152602001600020546110fa60186000600a60009054906101000a900473ffffffffffffffffffffffffffffffffffffffff1673ffffffffffffffffffffffffffffffffffffffff1673ffffffffffffffffffffffffffffffffffffffff168152602001908152602001600020546005600a6110c491906145ec565b6204f5886110d29190614637565b6000196110df91906146c0565b6000196110ec91906146f1565b6129c890919063ffffffff16565b6129c890919063ffffffff16565b61262190919063ffffffff16565b905090565b60065481565b6111296129de565b73ffffffffffffffffffffffffffffffffffffffff16611147611972565b73ffffffffffffffffffffffffffffffffffffffff161461119d576040517f08c379a000000000000000000000000000000000000000000000000000000000815260040161119490614771565b60405180910390fd5b80600160006101000a81548173ffffffffffffffffffffffffffffffffffffffff021916908373ffffffffffffffffffffffffffffffffffffffff16021790555050565b60006005905090565b60145481565b60001981565b6111fe6129de565b73ffffffffffffffffffffffffffffffffffffffff1661121c611972565b73ffffffffffffffffffffffffffffffffffffffff1614611272576040517f08c379a000000000000000000000000000000000000000000000000000000000815260040161126990614771565b60405180910390fd5b61127b826129e6565b6112ba576040517f08c379a00000000000000000000000000000000000000000000000000000000081526004016112b1906147dd565b60405180910390fd5b80601a60008473ffffffffffffffffffffffffffffffffffffffff1673ffffffffffffffffffffffffffffffffffffffff16815260200190815260200160002060006101000a81548160ff0219169083151502179055505050565b60006113a682601960003373ffffffffffffffffffffffffffffffffffffffff1673ffffffffffffffffffffffffffffffffffffffff16815260200190815260200160002060008673ffffffffffffffffffffffffffffffffffffffff1673ffffffffffffffffffffffffffffffffffffffff1681526020019081526020016000205461260b90919063ffffffff16565b601960003373ffffffffffffffffffffffffffffffffffffffff1673ffffffffffffffffffffffffffffffffffffffff16815260200190815260200160002060008573ffffffffffffffffffffffffffffffffffffffff1673ffffffffffffffffffffffffffffffffffffffff168152602001908152602001600020819055508273ffffffffffffffffffffffffffffffffffffffff163373ffffffffffffffffffffffffffffffffffffffff167f8c5be1e5ebec7d5bd14f71427d1e84f3dd0314c0f7b2291e5b200ac8c7c3b925601960003373ffffffffffffffffffffffffffffffffffffffff1673ffffffffffffffffffffffffffffffffffffffff16815260200190815260200160002060008773ffffffffffffffffffffffffffffffffffffffff1673ffffffffffffffffffffffffffffffffffffffff168152602001908152602001600020546040516114ff9190614195565b60405180910390a36001905092915050565b6115196129de565b73ffffffffffffffffffffffffffffffffffffffff16611537611972565b73ffffffffffffffffffffffffffffffffffffffff161461158d576040517f08c379a000000000000000000000000000000000000000000000000000000000815260040161158490614771565b60405180910390fd5b83600c60006101000a81548173ffffffffffffffffffffffffffffffffffffffff021916908373ffffffffffffffffffffffffffffffffffffffff16021790555082600d60006101000a81548173ffffffffffffffffffffffffffffffffffffffff021916908373ffffffffffffffffffffffffffffffffffffffff16021790555081600e60006101000a81548173ffffffffffffffffffffffffffffffffffffffff021916908373ffffffffffffffffffffffffffffffffffffffff16021790555080600f60006101000a81548173ffffffffffffffffffffffffffffffffffffffff021916908373ffffffffffffffffffffffffffffffffffffffff16021790555050505050565b60165481565b600f60009054906101000a900473ffffffffffffffffffffffffffffffffffffffff1681565b600160009054906101000a900473ffffffffffffffffffffffffffffffffffffffff1681565b600781565b60055481565b601260169054906101000a900460ff1681565b601060149054906101000a900460ff1681565b6000611770601754601860008573ffffffffffffffffffffffffffffffffffffffff1673ffffffffffffffffffffffffffffffffffffffff1681526020019081526020016000205461262190919063ffffffff16565b9050919050565b61177f6129de565b73ffffffffffffffffffffffffffffffffffffffff1661179d611972565b73ffffffffffffffffffffffffffffffffffffffff16146117f3576040517f08c379a00000000000000000000000000000000000000000000000000000000081526004016117ea90614771565b60405180910390fd5b6117fd60006129f9565b565b601260009054906101000a900473ffffffffffffffffffffffffffffffffffffffff1673ffffffffffffffffffffffffffffffffffffffff1663fff6cae96040518163ffffffff1660e01b8152600401600060405180830381600087803b15801561186957600080fd5b505af115801561187d573d6000803e3d6000fd5b50505050565b6000601260149054906101000a900460ff1615905090565b6118a36129de565b73ffffffffffffffffffffffffffffffffffffffff166118c1611972565b73ffffffffffffffffffffffffffffffffffffffff1614611917576040517f08c379a000000000000000000000000000000000000000000000000000000000815260040161190e90614771565b60405180910390fd5b6001600260008373ffffffffffffffffffffffffffffffffffffffff1673ffffffffffffffffffffffffffffffffffffffff16815260200190815260200160002060006101000a81548160ff02191690831515021790555050565b60008060009054906101000a900473ffffffffffffffffffffffffffffffffffffffff16905090565b60606040518060400160405280600581526020017f5354415348000000000000000000000000000000000000000000000000000000815250905090565b60035481565b60155481565b60135481565b6119f26129de565b73ffffffffffffffffffffffffffffffffffffffff16611a10611972565b73ffffffffffffffffffffffffffffffffffffffff1614611a66576040517f08c379a0000000000000000000000000000000000000000000000000000000008152600401611a5d90614771565b60405180910390fd5b80601060006101000a81548173ffffffffffffffffffffffffffffffffffffffff021916908373ffffffffffffffffffffffffffffffffffffffff16021790555050565b600080601960003373ffffffffffffffffffffffffffffffffffffffff1673ffffffffffffffffffffffffffffffffffffffff16815260200190815260200160002060008573ffffffffffffffffffffffffffffffffffffffff1673ffffffffffffffffffffffffffffffffffffffff168152602001908152602001600020549050808310611bba576000601960003373ffffffffffffffffffffffffffffffffffffffff1673ffffffffffffffffffffffffffffffffffffffff16815260200190815260200160002060008673ffffffffffffffffffffffffffffffffffffffff1673ffffffffffffffffffffffffffffffffffffffff16815260200190815260200160002081905550611c4e565b611bcd83826129c890919063ffffffff16565b601960003373ffffffffffffffffffffffffffffffffffffffff1673ffffffffffffffffffffffffffffffffffffffff16815260200190815260200160002060008673ffffffffffffffffffffffffffffffffffffffff1673ffffffffffffffffffffffffffffffffffffffff168152602001908152602001600020819055505b8373ffffffffffffffffffffffffffffffffffffffff163373ffffffffffffffffffffffffffffffffffffffff167f8c5be1e5ebec7d5bd14f71427d1e84f3dd0314c0f7b2291e5b200ac8c7c3b925601960003373ffffffffffffffffffffffffffffffffffffffff1673ffffffffffffffffffffffffffffffffffffffff16815260200190815260200160002060008873ffffffffffffffffffffffffffffffffffffffff1673ffffffffffffffffffffffffffffffffffffffff16815260200190815260200160002054604051611d279190614195565b60405180910390a3600191505092915050565b60075481565b601260009054906101000a900473ffffffffffffffffffffffffffffffffffffffff1681565b601060009054906101000a900473ffffffffffffffffffffffffffffffffffffffff1681565b600082600073ffffffffffffffffffffffffffffffffffffffff168173ffffffffffffffffffffffffffffffffffffffff1603611dc857600080fd5b611dd333858561268c565b50600191505092915050565b601260159054906101000a900460ff1681565b6001601260146101000a81548160ff021916908315150217905550611e156129de565b73ffffffffffffffffffffffffffffffffffffffff16611e33611972565b73ffffffffffffffffffffffffffffffffffffffff1614611e89576040517f08c379a0000000000000000000000000000000000000000000000000000000008152600401611e8090614771565b60405180910390fd5b6000611edf601754601860003073ffffffffffffffffffffffffffffffffffffffff1673ffffffffffffffffffffffffffffffffffffffff1681526020019081526020016000205461262190919063ffffffff16565b905060008111611f24576040517f08c379a0000000000000000000000000000000000000000000000000000000008152600401611f1b90614849565b60405180910390fd5b6000600267ffffffffffffffff811115611f4157611f40614869565b5b604051908082528060200260200182016040528015611f6f5781602001602082028036833780820191505090505b5090503081600081518110611f8757611f86614898565b5b602002602001019073ffffffffffffffffffffffffffffffffffffffff16908173ffffffffffffffffffffffffffffffffffffffff1681525050601160009054906101000a900473ffffffffffffffffffffffffffffffffffffffff1673ffffffffffffffffffffffffffffffffffffffff166373b295c26040518163ffffffff1660e01b8152600401602060405180830381865afa15801561202e573d6000803e3d6000fd5b505050506040513d601f19601f8201168201806040525081019061205291906148dc565b8160018151811061206657612065614898565b5b602002602001019073ffffffffffffffffffffffffffffffffffffffff16908173ffffffffffffffffffffffffffffffffffffffff1681525050601160009054906101000a900473ffffffffffffffffffffffffffffffffffffffff1673ffffffffffffffffffffffffffffffffffffffff1663762b156283600084600d60009054906101000a900473ffffffffffffffffffffffffffffffffffffffff16426040518663ffffffff1660e01b8152600401612126959493929190614a02565b600060405180830381600087803b15801561214057600080fd5b505af1158015612154573d6000803e3d6000fd5b5050505050506000601260146101000a81548160ff021916908315150217905550565b600c60009054906101000a900473ffffffffffffffffffffffffffffffffffffffff1681565b60045481565b6121ab6129de565b73ffffffffffffffffffffffffffffffffffffffff166121c9611972565b73ffffffffffffffffffffffffffffffffffffffff161461221f576040517f08c379a000000000000000000000000000000000000000000000000000000000815260040161221690614771565b60405180910390fd5b801561224b5780601260166101000a81548160ff02191690831515021790555042601581905550612266565b80601260166101000a81548160ff0219169083151502179055505b50565b6000600260008373ffffffffffffffffffffffffffffffffffffffff1673ffffffffffffffffffffffffffffffffffffffff16815260200190815260200160002060009054906101000a900460ff169050919050565b60008061233860175460186000601260009054906101000a900473ffffffffffffffffffffffffffffffffffffffff1673ffffffffffffffffffffffffffffffffffffffff1673ffffffffffffffffffffffffffffffffffffffff1681526020019081526020016000205461262190919063ffffffff16565b9050612379612345610fe4565b61236b61235c600285612abd90919063ffffffff16565b86612abd90919063ffffffff16565b61262190919063ffffffff16565b915050919050565b6000601960008473ffffffffffffffffffffffffffffffffffffffff1673ffffffffffffffffffffffffffffffffffffffff16815260200190815260200160002060008373ffffffffffffffffffffffffffffffffffffffff1673ffffffffffffffffffffffffffffffffffffffff16815260200190815260200160002054905092915050565b6124106129de565b73ffffffffffffffffffffffffffffffffffffffff1661242e611972565b73ffffffffffffffffffffffffffffffffffffffff1614612484576040517f08c379a000000000000000000000000000000000000000000000000000000000815260040161247b90614771565b60405180910390fd5b80156124b05780601260156101000a81548160ff021916908315150217905550426014819055506124cb565b80601260156101000a81548160ff0219169083151502179055505b50565b6124d66129de565b73ffffffffffffffffffffffffffffffffffffffff166124f4611972565b73ffffffffffffffffffffffffffffffffffffffff161461254a576040517f08c379a000000000000000000000000000000000000000000000000000000000815260040161254190614771565b60405180910390fd5b600073ffffffffffffffffffffffffffffffffffffffff168173ffffffffffffffffffffffffffffffffffffffff16036125b9576040517f08c379a00000000000000000000000000000000000000000000000000000000081526004016125b090614ace565b60405180910390fd5b6125c2816129f9565b50565b601160009054906101000a900473ffffffffffffffffffffffffffffffffffffffff1681565b601a6020528060005260406000206000915054906101000a900460ff1681565b600081836126199190614aee565b905092915050565b6000818361262f9190614b44565b905092915050565b600083831115829061267f576040517f08c379a0000000000000000000000000000000000000000000000000000000008152600401612676919061402b565b60405180910390fd5b5082840390509392505050565b6000601a60008573ffffffffffffffffffffffffffffffffffffffff1673ffffffffffffffffffffffffffffffffffffffff16815260200190815260200160002060009054906101000a900460ff161580156127325750601a60008473ffffffffffffffffffffffffffffffffffffffff1673ffffffffffffffffffffffffffffffffffffffff16815260200190815260200160002060009054906101000a900460ff16155b612771576040517f08c379a000000000000000000000000000000000000000000000000000000000815260040161276890614bc1565b60405180910390fd5b601260149054906101000a900460ff161561279857612791848484612ad3565b90506129c1565b6127a0612c23565b156127ae576127ad612cf1565b5b6127b6612f67565b156127c4576127c361300d565b5b6127cc61357c565b156127da576127d96135ee565b5b60006127f160175484612abd90919063ffffffff16565b905061284581601860008873ffffffffffffffffffffffffffffffffffffffff1673ffffffffffffffffffffffffffffffffffffffff168152602001908152602001600020546129c890919063ffffffff16565b601860008773ffffffffffffffffffffffffffffffffffffffff1673ffffffffffffffffffffffffffffffffffffffff1681526020019081526020016000208190555060006128948686613a5e565b61289e57816128aa565b6128a9868684613b67565b5b90506128fe81601860008873ffffffffffffffffffffffffffffffffffffffff1673ffffffffffffffffffffffffffffffffffffffff1681526020019081526020016000205461260b90919063ffffffff16565b601860008773ffffffffffffffffffffffffffffffffffffffff1673ffffffffffffffffffffffffffffffffffffffff168152602001908152602001600020819055508473ffffffffffffffffffffffffffffffffffffffff168673ffffffffffffffffffffffffffffffffffffffff167fddf252ad1be2c89b69c2b068fc378daa952ba7f163c4a11628f55a4df523b3ef6129a56017548561262190919063ffffffff16565b6040516129b29190614195565b60405180910390a36001925050505b9392505050565b600081836129d691906146f1565b905092915050565b600033905090565b600080823b905060008111915050919050565b60008060009054906101000a900473ffffffffffffffffffffffffffffffffffffffff169050816000806101000a81548173ffffffffffffffffffffffffffffffffffffffff021916908373ffffffffffffffffffffffffffffffffffffffff1602179055508173ffffffffffffffffffffffffffffffffffffffff168173ffffffffffffffffffffffffffffffffffffffff167f8be0079c531659141344cd1fd0a4f28419497f9722a3daafe3b4186f6b6457e060405160405180910390a35050565b60008183612acb9190614637565b905092915050565b600080612aeb60175484612abd90919063ffffffff16565b9050612b3f81601860008873ffffffffffffffffffffffffffffffffffffffff1673ffffffffffffffffffffffffffffffffffffffff168152602001908152602001600020546129c890919063ffffffff16565b601860008773ffffffffffffffffffffffffffffffffffffffff1673ffffffffffffffffffffffffffffffffffffffff16815260200190815260200160002081905550612bd481601860008773ffffffffffffffffffffffffffffffffffffffff1673ffffffffffffffffffffffffffffffffffffffff1681526020019081526020016000205461260b90919063ffffffff16565b601860008673ffffffffffffffffffffffffffffffffffffffff1673ffffffffffffffffffffffffffffffffffffffff1681526020019081526020016000208190555060019150509392505050565b6000601260159054906101000a900460ff168015612c5e57506005600a612c4a91906145ec565b63c1b71080612c599190614637565b601654105b8015612cb85750601260009054906101000a900473ffffffffffffffffffffffffffffffffffffffff1673ffffffffffffffffffffffffffffffffffffffff163373ffffffffffffffffffffffffffffffffffffffff1614155b8015612cd15750601260149054906101000a900460ff16155b8015612cec5750610384601454612ce89190614aee565b4210155b905090565b601260149054906101000a900460ff16612f655760008060135442612d1691906146f1565b9050600060145442612d2891906146f1565b90506000612d416103848361262190919063ffffffff16565b90506000612d59600f83612abd90919063ffffffff16565b90506301e13380841015612d71576109339450612dac565b6301e133808410612d855760d39450612dab565b6302d1cd408410612d9957600e9450612daa565b630d2868808410612da957600294505b5b5b5b60005b82811015612e2357612e0a6007600a612dc891906145ec565b612dfc612deb896007600a612ddd91906145ec565b61260b90919063ffffffff16565b601654612abd90919063ffffffff16565b61262190919063ffffffff16565b6016819055508080612e1b90614be1565b915050612daf565b50612e6e6016546005600a612e3891906145ec565b6204f588612e469190614637565b600019612e5391906146c0565b600019612e6091906146f1565b61262190919063ffffffff16565b601781905550612e9d612e8c61038484612abd90919063ffffffff16565b60145461260b90919063ffffffff16565b601481905550600160009054906101000a900473ffffffffffffffffffffffffffffffffffffffff1673ffffffffffffffffffffffffffffffffffffffff1663fff6cae96040518163ffffffff1660e01b8152600401600060405180830381600087803b158015612f0d57600080fd5b505af1158015612f21573d6000803e3d6000fd5b50505050807f72725a3b1e5bd622d6bcd1339bb31279c351abe8f541ac7fd320f24e1b1641f2601654604051612f579190614195565b60405180910390a250505050505b565b6000601260169054906101000a900460ff168015612f925750601260149054906101000a900460ff16155b8015612fec5750601260009054906101000a900473ffffffffffffffffffffffffffffffffffffffff1673ffffffffffffffffffffffffffffffffffffffff163373ffffffffffffffffffffffffffffffffffffffff1614155b801561300857506202a3006015546130049190614aee565b4210155b905090565b6001601260146101000a81548160ff02191690831515021790555060006130a060175460186000600c60009054906101000a900473ffffffffffffffffffffffffffffffffffffffff1673ffffffffffffffffffffffffffffffffffffffff1673ffffffffffffffffffffffffffffffffffffffff1681526020019081526020016000205461262190919063ffffffff16565b905061315560186000600c60009054906101000a900473ffffffffffffffffffffffffffffffffffffffff1673ffffffffffffffffffffffffffffffffffffffff1673ffffffffffffffffffffffffffffffffffffffff16815260200190815260200160002054601860003073ffffffffffffffffffffffffffffffffffffffff1673ffffffffffffffffffffffffffffffffffffffff1681526020019081526020016000205461260b90919063ffffffff16565b601860003073ffffffffffffffffffffffffffffffffffffffff1673ffffffffffffffffffffffffffffffffffffffff16815260200190815260200160002081905550600060186000600c60009054906101000a900473ffffffffffffffffffffffffffffffffffffffff1673ffffffffffffffffffffffffffffffffffffffff1673ffffffffffffffffffffffffffffffffffffffff16815260200190815260200160002081905550600061321560028361262190919063ffffffff16565b9050600061322c82846129c890919063ffffffff16565b90506000810361323e5750505061355f565b6000600267ffffffffffffffff81111561325b5761325a614869565b5b6040519080825280602002602001820160405280156132895781602001602082028036833780820191505090505b50905030816000815181106132a1576132a0614898565b5b602002602001019073ffffffffffffffffffffffffffffffffffffffff16908173ffffffffffffffffffffffffffffffffffffffff1681525050601160009054906101000a900473ffffffffffffffffffffffffffffffffffffffff1673ffffffffffffffffffffffffffffffffffffffff166373b295c26040518163ffffffff1660e01b8152600401602060405180830381865afa158015613348573d6000803e3d6000fd5b505050506040513d601f19601f8201168201806040525081019061336c91906148dc565b816001815181106133805761337f614898565b5b602002602001019073ffffffffffffffffffffffffffffffffffffffff16908173ffffffffffffffffffffffffffffffffffffffff16815250506000479050601160009054906101000a900473ffffffffffffffffffffffffffffffffffffffff1673ffffffffffffffffffffffffffffffffffffffff1663762b15628460008530426040518663ffffffff1660e01b8152600401613423959493929190614a02565b600060405180830381600087803b15801561343d57600080fd5b505af1158015613451573d6000803e3d6000fd5b50505050600061346a82476129c890919063ffffffff16565b905060008511801561347c5750600081115b1561355157601160009054906101000a900473ffffffffffffffffffffffffffffffffffffffff1673ffffffffffffffffffffffffffffffffffffffff1663f91b3f72823088600080600c60009054906101000a900473ffffffffffffffffffffffffffffffffffffffff16426040518863ffffffff1660e01b815260040161350a96959493929190614c29565b60606040518083038185885af1158015613528573d6000803e3d6000fd5b50505050506040513d601f19601f8201168201806040525081019061354d9190614c9f565b5050505b426015819055505050505050505b6000601260146101000a81548160ff021916908315150217905550565b6000601260149054906101000a900460ff161580156135e95750601260009054906101000a900473ffffffffffffffffffffffffffffffffffffffff1673ffffffffffffffffffffffffffffffffffffffff163373ffffffffffffffffffffffffffffffffffffffff1614155b905090565b6001601260146101000a81548160ff021916908315150217905550600061365f601754601860003073ffffffffffffffffffffffffffffffffffffffff1673ffffffffffffffffffffffffffffffffffffffff1681526020019081526020016000205461262190919063ffffffff16565b90506000810361366f5750613a41565b60004790506000600267ffffffffffffffff81111561369157613690614869565b5b6040519080825280602002602001820160405280156136bf5781602001602082028036833780820191505090505b50905030816000815181106136d7576136d6614898565b5b602002602001019073ffffffffffffffffffffffffffffffffffffffff16908173ffffffffffffffffffffffffffffffffffffffff1681525050601160009054906101000a900473ffffffffffffffffffffffffffffffffffffffff1673ffffffffffffffffffffffffffffffffffffffff166373b295c26040518163ffffffff1660e01b8152600401602060405180830381865afa15801561377e573d6000803e3d6000fd5b505050506040513d601f19601f820116820180604052508101906137a291906148dc565b816001815181106137b6576137b5614898565b5b602002602001019073ffffffffffffffffffffffffffffffffffffffff16908173ffffffffffffffffffffffffffffffffffffffff1681525050601160009054906101000a900473ffffffffffffffffffffffffffffffffffffffff1673ffffffffffffffffffffffffffffffffffffffff1663762b15628460008430426040518663ffffffff1660e01b8152600401613854959493929190614a02565b600060405180830381600087803b15801561386e57600080fd5b505af1158015613882573d6000803e3d6000fd5b50505050600061389b83476129c890919063ffffffff16565b90506000600d60009054906101000a900473ffffffffffffffffffffffffffffffffffffffff1673ffffffffffffffffffffffffffffffffffffffff166139156138f260055460045461260b90919063ffffffff16565b61390760045486612abd90919063ffffffff16565b61262190919063ffffffff16565b6175309060405161392590614d23565b600060405180830381858888f193505050503d8060008114613963576040519150601f19603f3d011682016040523d82523d6000602084013e613968565b606091505b50509050600e60009054906101000a900473ffffffffffffffffffffffffffffffffffffffff1673ffffffffffffffffffffffffffffffffffffffff166139e26139bf60055460045461260b90919063ffffffff16565b6139d460055486612abd90919063ffffffff16565b61262190919063ffffffff16565b617530906040516139f290614d23565b600060405180830381858888f193505050503d8060008114613a30576040519150601f19603f3d011682016040523d82523d6000602084013e613a35565b606091505b50508091505050505050505b6000601260146101000a81548160ff021916908315150217905550565b60008273ffffffffffffffffffffffffffffffffffffffff16601260009054906101000a900473ffffffffffffffffffffffffffffffffffffffff1673ffffffffffffffffffffffffffffffffffffffff161480613b0957508173ffffffffffffffffffffffffffffffffffffffff16601260009054906101000a900473ffffffffffffffffffffffffffffffffffffffff1673ffffffffffffffffffffffffffffffffffffffff16145b8015613b5f5750600260008473ffffffffffffffffffffffffffffffffffffffff1673ffffffffffffffffffffffffffffffffffffffff16815260200190815260200160002060009054906101000a900460ff16155b905092915050565b600080600854905060006004549050601260009054906101000a900473ffffffffffffffffffffffffffffffffffffffff1673ffffffffffffffffffffffffffffffffffffffff168573ffffffffffffffffffffffffffffffffffffffff1603613bfe57613be260065460085461260b90919063ffffffff16565b9150613bfb60065460045461260b90919063ffffffff16565b90505b6000613c2783613c196009548861262190919063ffffffff16565b612abd90919063ffffffff16565b9050613cc5613c55600754613c476009548961262190919063ffffffff16565b612abd90919063ffffffff16565b60186000600f60009054906101000a900473ffffffffffffffffffffffffffffffffffffffff1673ffffffffffffffffffffffffffffffffffffffff1673ffffffffffffffffffffffffffffffffffffffff1681526020019081526020016000205461260b90919063ffffffff16565b60186000600f60009054906101000a900473ffffffffffffffffffffffffffffffffffffffff1673ffffffffffffffffffffffffffffffffffffffff1673ffffffffffffffffffffffffffffffffffffffff16815260200190815260200160002081905550613db6613d68613d456005548561260b90919063ffffffff16565b613d5a6009548961262190919063ffffffff16565b612abd90919063ffffffff16565b601860003073ffffffffffffffffffffffffffffffffffffffff1673ffffffffffffffffffffffffffffffffffffffff1681526020019081526020016000205461260b90919063ffffffff16565b601860003073ffffffffffffffffffffffffffffffffffffffff1673ffffffffffffffffffffffffffffffffffffffff16815260200190815260200160002081905550613e95613e25600354613e176009548961262190919063ffffffff16565b612abd90919063ffffffff16565b60186000600c60009054906101000a900473ffffffffffffffffffffffffffffffffffffffff1673ffffffffffffffffffffffffffffffffffffffff1673ffffffffffffffffffffffffffffffffffffffff1681526020019081526020016000205461260b90919063ffffffff16565b60186000600c60009054906101000a900473ffffffffffffffffffffffffffffffffffffffff1673ffffffffffffffffffffffffffffffffffffffff1673ffffffffffffffffffffffffffffffffffffffff168152602001908152602001600020819055503073ffffffffffffffffffffffffffffffffffffffff168773ffffffffffffffffffffffffffffffffffffffff167fddf252ad1be2c89b69c2b068fc378daa952ba7f163c4a11628f55a4df523b3ef613f5e6017548561262190919063ffffffff16565b604051613f6b9190614195565b60405180910390a3613f8681866129c890919063ffffffff16565b93505050509392505050565b600081519050919050565b600082825260208201905092915050565b60005b83811015613fcc578082015181840152602081019050613fb1565b83811115613fdb576000848401525b50505050565b6000601f19601f8301169050919050565b6000613ffd82613f92565b6140078185613f9d565b9350614017818560208601613fae565b61402081613fe1565b840191505092915050565b600060208201905081810360008301526140458184613ff2565b905092915050565b600073ffffffffffffffffffffffffffffffffffffffff82169050919050565b60006140788261404d565b9050919050565b6140888161406d565b82525050565b60006020820190506140a3600083018461407f565b92915050565b600080fd5b6140b78161406d565b81146140c257600080fd5b50565b6000813590506140d4816140ae565b92915050565b6000819050919050565b6140ed816140da565b81146140f857600080fd5b50565b60008135905061410a816140e4565b92915050565b60008060408385031215614127576141266140a9565b5b6000614135858286016140c5565b9250506020614146858286016140fb565b9150509250929050565b60008115159050919050565b61416581614150565b82525050565b6000602082019050614180600083018461415c565b92915050565b61418f816140da565b82525050565b60006020820190506141aa6000830184614186565b92915050565b6000806000606084860312156141c9576141c86140a9565b5b60006141d7868287016140c5565b93505060206141e8868287016140c5565b92505060406141f9868287016140fb565b9150509250925092565b600060208284031215614219576142186140a9565b5b6000614227848285016140c5565b91505092915050565b600060ff82169050919050565b61424681614230565b82525050565b6000602082019050614261600083018461423d565b92915050565b61427081614150565b811461427b57600080fd5b50565b60008135905061428d81614267565b92915050565b600080604083850312156142aa576142a96140a9565b5b60006142b8858286016140c5565b92505060206142c98582860161427e565b9150509250929050565b600080600080608085870312156142ed576142ec6140a9565b5b60006142fb878288016140c5565b945050602061430c878288016140c5565b935050604061431d878288016140c5565b925050606061432e878288016140c5565b91505092959194509250565b6000819050919050565b600061435f61435a6143558461404d565b61433a565b61404d565b9050919050565b600061437182614344565b9050919050565b600061438382614366565b9050919050565b61439381614378565b82525050565b60006020820190506143ae600083018461438a565b92915050565b6000602082840312156143ca576143c96140a9565b5b60006143d88482850161427e565b91505092915050565b6000602082840312156143f7576143f66140a9565b5b6000614405848285016140fb565b91505092915050565b60008060408385031215614425576144246140a9565b5b6000614433858286016140c5565b9250506020614444858286016140c5565b9150509250929050565b600061445982614366565b9050919050565b6144698161444e565b82525050565b60006020820190506144846000830184614460565b92915050565b7f4e487b7100000000000000000000000000000000000000000000000000000000600052601160045260246000fd5b60008160011c9050919050565b6000808291508390505b6001851115614510578086048111156144ec576144eb61448a565b5b60018516156144fb5780820291505b8081029050614509856144b9565b94506144d0565b94509492505050565b60008261452957600190506145e5565b8161453757600090506145e5565b816001811461454d576002811461455757614586565b60019150506145e5565b60ff8411156145695761456861448a565b5b8360020a9150848211156145805761457f61448a565b5b506145e5565b5060208310610133831016604e8410600b84101617156145bb5782820a9050838111156145b6576145b561448a565b5b6145e5565b6145c884848460016144c6565b925090508184048111156145df576145de61448a565b5b81810290505b9392505050565b60006145f7826140da565b915061460283614230565b925061462f7fffffffffffffffffffffffffffffffffffffffffffffffffffffffffffffffff8484614519565b905092915050565b6000614642826140da565b915061464d836140da565b9250817fffffffffffffffffffffffffffffffffffffffffffffffffffffffffffffffff04831182151516156146865761468561448a565b5b828202905092915050565b7f4e487b7100000000000000000000000000000000000000000000000000000000600052601260045260246000fd5b60006146cb826140da565b91506146d6836140da565b9250826146e6576146e5614691565b5b828206905092915050565b60006146fc826140da565b9150614707836140da565b92508282101561471a5761471961448a565b5b828203905092915050565b7f4f776e61626c653a2063616c6c6572206973206e6f7420746865206f776e6572600082015250565b600061475b602083613f9d565b915061476682614725565b602082019050919050565b6000602082019050818103600083015261478a8161474e565b9050919050565b7f4d5553545f42455f415f434f4e54524143545f41444452455353000000000000600082015250565b60006147c7601a83613f9d565b91506147d282614791565b602082019050919050565b600060208201905081810360008301526147f6816147ba565b9050919050565b7f4e4f5f544f4b454e535f4445504f534954454400000000000000000000000000600082015250565b6000614833601383613f9d565b915061483e826147fd565b602082019050919050565b6000602082019050818103600083015261486281614826565b9050919050565b7f4e487b7100000000000000000000000000000000000000000000000000000000600052604160045260246000fd5b7f4e487b7100000000000000000000000000000000000000000000000000000000600052603260045260246000fd5b6000815190506148d6816140ae565b92915050565b6000602082840312156148f2576148f16140a9565b5b6000614900848285016148c7565b91505092915050565b6000819050919050565b600061492e61492961492484614909565b61433a565b6140da565b9050919050565b61493e81614913565b82525050565b600081519050919050565b600082825260208201905092915050565b6000819050602082019050919050565b6149798161406d565b82525050565b600061498b8383614970565b60208301905092915050565b6000602082019050919050565b60006149af82614944565b6149b9818561494f565b93506149c483614960565b8060005b838110156149f55781516149dc888261497f565b97506149e783614997565b9250506001810190506149c8565b5085935050505092915050565b600060a082019050614a176000830188614186565b614a246020830187614935565b8181036040830152614a3681866149a4565b9050614a45606083018561407f565b614a526080830184614186565b9695505050505050565b7f4f776e61626c653a206e6577206f776e657220697320746865207a65726f206160008201527f6464726573730000000000000000000000000000000000000000000000000000602082015250565b6000614ab8602683613f9d565b9150614ac382614a5c565b604082019050919050565b60006020820190508181036000830152614ae781614aab565b9050919050565b6000614af9826140da565b9150614b04836140da565b9250827fffffffffffffffffffffffffffffffffffffffffffffffffffffffffffffffff03821115614b3957614b3861448a565b5b828201905092915050565b6000614b4f826140da565b9150614b5a836140da565b925082614b6a57614b69614691565b5b828204905092915050565b7f414444524553535f494e5f424c41434b4c495354000000000000000000000000600082015250565b6000614bab601483613f9d565b9150614bb682614b75565b602082019050919050565b60006020820190508181036000830152614bda81614b9e565b9050919050565b6000614bec826140da565b91507fffffffffffffffffffffffffffffffffffffffffffffffffffffffffffffffff8203614c1e57614c1d61448a565b5b600182019050919050565b600060c082019050614c3e600083018961407f565b614c4b6020830188614186565b614c586040830187614935565b614c656060830186614935565b614c72608083018561407f565b614c7f60a0830184614186565b979650505050505050565b600081519050614c99816140e4565b92915050565b600080600060608486031215614cb857614cb76140a9565b5b6000614cc686828701614c8a565b9350506020614cd786828701614c8a565b9250506040614ce886828701614c8a565b9150509250925092565b600081905092915050565b50565b6000614d0d600083614cf2565b9150614d1882614cfd565b600082019050919050565b6000614d2e82614d00565b915081905091905056fea264697066735822122037672f825bdcb06f1816aacf32493261c1f8040294116bbb9f958062253b814c64736f6c634300080d0033",
  "linkReferences": {},
  "deployedLinkReferences": {}
}